{
  "contractName": "Bank",
  "abi": [
    {
      "inputs": [],
      "stateMutability": "nonpayable",
      "type": "constructor"
    },
    {
      "anonymous": false,
      "inputs": [
        {
          "indexed": false,
          "internalType": "address",
          "name": "sentBy",
          "type": "address"
        },
        {
          "indexed": false,
          "internalType": "uint256",
          "name": "amount",
          "type": "uint256"
        }
      ],
      "name": "depositMade",
      "type": "event"
    },
    {
      "inputs": [
        {
          "internalType": "address",
          "name": "",
          "type": "address"
        }
      ],
      "name": "balances",
      "outputs": [
        {
          "internalType": "uint256",
          "name": "",
          "type": "uint256"
        }
      ],
      "stateMutability": "view",
      "type": "function"
    },
    {
      "inputs": [],
      "name": "owner",
      "outputs": [
        {
          "internalType": "address",
          "name": "",
          "type": "address"
        }
      ],
      "stateMutability": "view",
      "type": "function"
    },
    {
      "inputs": [],
      "name": "deposit",
      "outputs": [],
      "stateMutability": "payable",
      "type": "function"
    },
    {
      "inputs": [],
      "name": "withDraw",
      "outputs": [],
      "stateMutability": "payable",
      "type": "function"
    },
    {
      "inputs": [],
      "name": "destroy",
      "outputs": [],
      "stateMutability": "nonpayable",
      "type": "function"
    }
  ],
  "bytecode": "0x608060405234801561001057600080fd5b503373ffffffffffffffffffffffffffffffffffffffff1660008054906101000a905050506104e5806100446000396000f3fe60806040526004361061004a5760003560e01c80630fdb1c101461004f57806327e235e31461005957806383197ef0146100965780638da5cb5b146100ad578063d0e30db0146100d8575b600080fd5b6100576100e2565b005b34801561006557600080fd5b50610080600480360381019061007b9190610376565b6101b5565b60405161008d91906103bc565b60405180910390f35b3480156100a257600080fd5b506100ab6101cd565b005b3480156100b957600080fd5b506100c261025e565b6040516100cf91906103e6565b60405180910390f35b6100e0610282565b005b6000600160003373ffffffffffffffffffffffffffffffffffffffff1673ffffffffffffffffffffffffffffffffffffffff1681526020019081526020016000205490506000600160003373ffffffffffffffffffffffffffffffffffffffff1673ffffffffffffffffffffffffffffffffffffffff168152602001908152602001600020819055503373ffffffffffffffffffffffffffffffffffffffff166108fc829081150290604051600060405180830381858888f193505050501580156101b1573d6000803e3d6000fd5b5050565b60016020528060005260406000206000915090505481565b60008054906101000a900473ffffffffffffffffffffffffffffffffffffffff1673ffffffffffffffffffffffffffffffffffffffff163373ffffffffffffffffffffffffffffffffffffffff161461022557600080fd5b60008054906101000a900473ffffffffffffffffffffffffffffffffffffffff1673ffffffffffffffffffffffffffffffffffffffff16ff5b60008054906101000a900473ffffffffffffffffffffffffffffffffffffffff1681565b34600160003373ffffffffffffffffffffffffffffffffffffffff1673ffffffffffffffffffffffffffffffffffffffff16815260200190815260200160002060008282546102d19190610430565b925050819055507f14558f60a55f03caac2b3dabdda0b51b20b0e22ce09a2c28cd1dc18e873578e83334604051610309929190610486565b60405180910390a1565b600080fd5b600073ffffffffffffffffffffffffffffffffffffffff82169050919050565b600061034382610318565b9050919050565b61035381610338565b811461035e57600080fd5b50565b6000813590506103708161034a565b92915050565b60006020828403121561038c5761038b610313565b5b600061039a84828501610361565b91505092915050565b6000819050919050565b6103b6816103a3565b82525050565b60006020820190506103d160008301846103ad565b92915050565b6103e081610338565b82525050565b60006020820190506103fb60008301846103d7565b92915050565b7f4e487b7100000000000000000000000000000000000000000000000000000000600052601160045260246000fd5b600061043b826103a3565b9150610446836103a3565b9250827fffffffffffffffffffffffffffffffffffffffffffffffffffffffffffffffff0382111561047b5761047a610401565b5b828201905092915050565b600060408201905061049b60008301856103d7565b6104a860208301846103ad565b939250505056fea2646970667358221220db9b4e2f0acce2573f758408539211ce9de2fddd71a76ff6bde92af78c92271564736f6c634300080e0033",
  "immutableReferences": {},
  "source": "// SPDX-License-Identifier: GPL-3.0\r\n// No need to use SafeMath, as lowest allowed version is 0.8.0\r\npragma solidity ^0.8.0;\r\n\r\ncontract Bank {\r\n    address public owner;\r\n    mapping (address => uint) public balances;\r\n\r\n    event depositMade(address sentBy, uint amount);\r\n\r\n    constructor() {\r\n        owner == msg.sender;\r\n    }\r\n\r\n    function deposit() public payable {\r\n        balances[msg.sender] += msg.value;  //should check for overflows\r\n        emit depositMade(msg.sender, msg.value);\r\n    }\r\n\r\n    function withDraw() public payable {\r\n        uint balance = balances[msg.sender];\r\n        balances[msg.sender] = 0;\r\n        payable(msg.sender).transfer(balance);\r\n    }\r\n\r\n    function destroy() public  {\r\n        require(msg.sender == owner);\r\n        selfdestruct(payable(owner));\r\n    }\r\n}",
  "sourcePath": "C:\\Users\\ccall\\OneDrive\\Desktop\\MDWP_From_Video_Solidity\\contracts\\Bank.sol",
  "compiler": {
    "name": "solc",
    "version": "0.8.14+commit.80d49f37.Emscripten.clang"
  },
  "schemaVersion": "3.4.7",
  "updatedAt": "2022-07-17T17:21:43.184Z",
  "devdoc": {
    "kind": "dev",
    "methods": {},
    "version": 1
  },
  "userdoc": {
    "kind": "user",
    "methods": {},
    "version": 1
  }
}