{
  "contractName": "Web3Place",
  "abi": [
    {
      "inputs": [],
      "stateMutability": "nonpayable",
      "type": "constructor"
    },
    {
      "anonymous": false,
      "inputs": [
        {
          "indexed": false,
          "internalType": "uint256",
          "name": "x",
          "type": "uint256"
        },
        {
          "indexed": false,
          "internalType": "uint256",
          "name": "y",
          "type": "uint256"
        },
        {
          "indexed": false,
          "internalType": "bytes3",
          "name": "color",
          "type": "bytes3"
        }
      ],
      "name": "PixelColourChanged",
      "type": "event"
    },
    {
      "anonymous": false,
      "inputs": [
        {
          "indexed": false,
          "internalType": "uint256",
          "name": "x",
          "type": "uint256"
        },
        {
          "indexed": false,
          "internalType": "uint256",
          "name": "y",
          "type": "uint256"
        },
        {
          "indexed": false,
          "internalType": "address",
          "name": "owner",
          "type": "address"
        },
        {
          "indexed": false,
          "internalType": "uint256",
          "name": "soldPrice",
          "type": "uint256"
        }
      ],
      "name": "PixelOwnerChanged",
      "type": "event"
    },
    {
      "anonymous": false,
      "inputs": [
        {
          "indexed": false,
          "internalType": "string",
          "name": "x",
          "type": "string"
        }
      ],
      "name": "gotHere",
      "type": "event"
    },
    {
      "inputs": [],
      "name": "owner",
      "outputs": [
        {
          "internalType": "address",
          "name": "",
          "type": "address"
        }
      ],
      "stateMutability": "view",
      "type": "function"
    },
    {
      "inputs": [
        {
          "internalType": "address",
          "name": "",
          "type": "address"
        }
      ],
      "name": "pendingRefunds",
      "outputs": [
        {
          "internalType": "uint256",
          "name": "",
          "type": "uint256"
        }
      ],
      "stateMutability": "view",
      "type": "function"
    },
    {
      "inputs": [
        {
          "internalType": "uint256",
          "name": "",
          "type": "uint256"
        },
        {
          "internalType": "uint256",
          "name": "",
          "type": "uint256"
        }
      ],
      "name": "pixels",
      "outputs": [
        {
          "internalType": "address",
          "name": "owner",
          "type": "address"
        },
        {
          "internalType": "uint256",
          "name": "soldPrice",
          "type": "uint256"
        },
        {
          "internalType": "bytes3",
          "name": "colour",
          "type": "bytes3"
        }
      ],
      "stateMutability": "view",
      "type": "function"
    },
    {
      "inputs": [
        {
          "internalType": "uint256",
          "name": "x",
          "type": "uint256"
        },
        {
          "internalType": "uint256",
          "name": "y",
          "type": "uint256"
        }
      ],
      "name": "buyPixel",
      "outputs": [],
      "stateMutability": "payable",
      "type": "function"
    },
    {
      "inputs": [
        {
          "internalType": "uint256",
          "name": "x",
          "type": "uint256"
        },
        {
          "internalType": "uint256",
          "name": "y",
          "type": "uint256"
        },
        {
          "internalType": "bytes3",
          "name": "colour",
          "type": "bytes3"
        }
      ],
      "name": "changePixelColour",
      "outputs": [],
      "stateMutability": "nonpayable",
      "type": "function"
    },
    {
      "inputs": [],
      "name": "withdrawProfit",
      "outputs": [],
      "stateMutability": "nonpayable",
      "type": "function"
    },
    {
      "inputs": [
        {
          "internalType": "uint8",
          "name": "i",
          "type": "uint8"
        }
      ],
      "name": "uint8tohexchar",
      "outputs": [
        {
          "internalType": "uint8",
          "name": "",
          "type": "uint8"
        }
      ],
      "stateMutability": "pure",
      "type": "function"
    },
    {
      "inputs": [
        {
          "internalType": "uint24",
          "name": "i",
          "type": "uint24"
        }
      ],
      "name": "uint24tohexstr",
      "outputs": [
        {
          "internalType": "string",
          "name": "",
          "type": "string"
        }
      ],
      "stateMutability": "pure",
      "type": "function"
    },
    {
      "inputs": [
        {
          "internalType": "bytes3",
          "name": "i",
          "type": "bytes3"
        }
      ],
      "name": "colourToHexString",
      "outputs": [
        {
          "internalType": "string",
          "name": "",
          "type": "string"
        }
      ],
      "stateMutability": "pure",
      "type": "function"
    }
  ],
  "bytecode": "0x608060405234801561001057600080fd5b50336000806101000a81548173ffffffffffffffffffffffffffffffffffffffff021916908373ffffffffffffffffffffffffffffffffffffffff1602179055506110bd806100606000396000f3fe6080604052600436106100855760003560e01c806369d640fd1161005957806369d640fd1461015d5780638da5cb5b1461019c578063959499b6146101c7578063b613b114146101de578063bc0ac7891461021b57610085565b8062f7866b1461008a5780632fb049bc146100c75780633912229d146100e357806355bf283b14610120575b600080fd5b34801561009657600080fd5b506100b160048036038101906100ac9190610a9a565b610244565b6040516100be9190610b60565b60405180910390f35b6100e160048036038101906100dc9190610bb8565b6104ca565b005b3480156100ef57600080fd5b5061010a60048036038101906101059190610c50565b61072c565b6040516101179190610b60565b60405180910390f35b34801561012c57600080fd5b5061014760048036038101906101429190610cb6565b610747565b6040516101549190610cf2565b60405180910390f35b34801561016957600080fd5b50610184600480360381019061017f9190610bb8565b61077b565b60405161019393929190610d6c565b60405180910390f35b3480156101a857600080fd5b506101b16107ee565b6040516101be9190610da3565b60405180910390f35b3480156101d357600080fd5b506101dc610812565b005b3480156101ea57600080fd5b5061020560048036038101906102009190610dea565b610909565b6040516102129190610e17565b60405180910390f35b34801561022757600080fd5b50610242600480360381019061023d9190610e32565b610923565b005b60606000600667ffffffffffffffff81111561026357610262610e85565b5b6040519080825280601f01601f1916602001820160405280156102955781602001600182028036833780820191505090505b5090506000600f90506102a9818516610747565b60f81b826005815181106102c0576102bf610eb4565b5b60200101907effffffffffffffffffffffffffffffffffffffffffffffffffffffffffffff1916908160001a90535060048462ffffff16901c9350610306818516610747565b60f81b8260048151811061031d5761031c610eb4565b5b60200101907effffffffffffffffffffffffffffffffffffffffffffffffffffffffffffff1916908160001a90535060048462ffffff16901c9350610363818516610747565b60f81b8260038151811061037a57610379610eb4565b5b60200101907effffffffffffffffffffffffffffffffffffffffffffffffffffffffffffff1916908160001a90535060048462ffffff16901c93506103c0818516610747565b60f81b826002815181106103d7576103d6610eb4565b5b60200101907effffffffffffffffffffffffffffffffffffffffffffffffffffffffffffff1916908160001a90535060048462ffffff16901c935061041d818516610747565b60f81b8260018151811061043457610433610eb4565b5b60200101907effffffffffffffffffffffffffffffffffffffffffffffffffffffffffffff1916908160001a90535060048462ffffff16901c935061047a818516610747565b60f81b8260008151811061049157610490610eb4565b5b60200101907effffffffffffffffffffffffffffffffffffffffffffffffffffffffffffff1916908160001a9053508192505050919050565b60006001836103e881106104e1576104e0610eb4565b5b610bb80201826103e881106104f9576104f8610eb4565b5b600302019050670de0b6b3a764000081600101546105179190610f12565b34101561052357600080fd5b600073ffffffffffffffffffffffffffffffffffffffff168160000160009054906101000a900473ffffffffffffffffffffffffffffffffffffffff1673ffffffffffffffffffffffffffffffffffffffff16146105fc5734622dc6c160008360000160009054906101000a900473ffffffffffffffffffffffffffffffffffffffff1673ffffffffffffffffffffffffffffffffffffffff1673ffffffffffffffffffffffffffffffffffffffff16815260200190815260200160002060008282546105f09190610f12565b92505081905550610676565b34622dc6c160008060009054906101000a900473ffffffffffffffffffffffffffffffffffffffff1673ffffffffffffffffffffffffffffffffffffffff1673ffffffffffffffffffffffffffffffffffffffff168152602001908152602001600020600082825461066e9190610f12565b925050819055505b338160000160006101000a81548173ffffffffffffffffffffffffffffffffffffffff021916908373ffffffffffffffffffffffffffffffffffffffff1602179055503481600101819055507f83973368ffd14dcf04f0e434ab04384e36ab79c2094ddbbba521a19668d5a11283838360000160009054906101000a900473ffffffffffffffffffffffffffffffffffffffff16846001015460405161071f9493929190610f68565b60405180910390a1505050565b606060008260e81c905061073f81610244565b915050919050565b600060098260ff1611610766576030826107619190610fad565b610774565b6057826107739190610fad565b5b9050919050565b6001826103e8811061078c57600080fd5b610bb80201816103e881106107a057600080fd5b60030201600091509150508060000160009054906101000a900473ffffffffffffffffffffffffffffffffffffffff16908060010154908060020160009054906101000a900460e81b905083565b60008054906101000a900473ffffffffffffffffffffffffffffffffffffffff1681565b60003390506000622dc6c160008373ffffffffffffffffffffffffffffffffffffffff1673ffffffffffffffffffffffffffffffffffffffff1681526020019081526020016000205490506000811161086a57600080fd5b8047101561087757600080fd5b6000622dc6c160008473ffffffffffffffffffffffffffffffffffffffff1673ffffffffffffffffffffffffffffffffffffffff168152602001908152602001600020819055508173ffffffffffffffffffffffffffffffffffffffff166108fc829081150290604051600060405180830381858888f19350505050158015610904573d6000803e3d6000fd5b505050565b622dc6c16020528060005260406000206000915090505481565b7f4e0f0a9e962241a00c3ca5015337a11e150826a5710fc48fbd2330d7af8056cc60405161095090611030565b60405180910390a160006001846103e8811061096f5761096e610eb4565b5b610bb80201836103e8811061098757610986610eb4565b5b6003020190503373ffffffffffffffffffffffffffffffffffffffff168160000160009054906101000a900473ffffffffffffffffffffffffffffffffffffffff1673ffffffffffffffffffffffffffffffffffffffff16146109e957600080fd5b818160020160006101000a81548162ffffff021916908360e81c02179055507f01a88a29fdd4a179c6cd98e481c2db9f1e03da97a0cc628cf1c01b49f7098d1284848360020160009054906101000a900460e81b604051610a4c93929190611050565b60405180910390a150505050565b600080fd5b600062ffffff82169050919050565b610a7781610a5f565b8114610a8257600080fd5b50565b600081359050610a9481610a6e565b92915050565b600060208284031215610ab057610aaf610a5a565b5b6000610abe84828501610a85565b91505092915050565b600081519050919050565b600082825260208201905092915050565b60005b83811015610b01578082015181840152602081019050610ae6565b83811115610b10576000848401525b50505050565b6000601f19601f8301169050919050565b6000610b3282610ac7565b610b3c8185610ad2565b9350610b4c818560208601610ae3565b610b5581610b16565b840191505092915050565b60006020820190508181036000830152610b7a8184610b27565b905092915050565b6000819050919050565b610b9581610b82565b8114610ba057600080fd5b50565b600081359050610bb281610b8c565b92915050565b60008060408385031215610bcf57610bce610a5a565b5b6000610bdd85828601610ba3565b9250506020610bee85828601610ba3565b9150509250929050565b60007fffffff000000000000000000000000000000000000000000000000000000000082169050919050565b610c2d81610bf8565b8114610c3857600080fd5b50565b600081359050610c4a81610c24565b92915050565b600060208284031215610c6657610c65610a5a565b5b6000610c7484828501610c3b565b91505092915050565b600060ff82169050919050565b610c9381610c7d565b8114610c9e57600080fd5b50565b600081359050610cb081610c8a565b92915050565b600060208284031215610ccc57610ccb610a5a565b5b6000610cda84828501610ca1565b91505092915050565b610cec81610c7d565b82525050565b6000602082019050610d076000830184610ce3565b92915050565b600073ffffffffffffffffffffffffffffffffffffffff82169050919050565b6000610d3882610d0d565b9050919050565b610d4881610d2d565b82525050565b610d5781610b82565b82525050565b610d6681610bf8565b82525050565b6000606082019050610d816000830186610d3f565b610d8e6020830185610d4e565b610d9b6040830184610d5d565b949350505050565b6000602082019050610db86000830184610d3f565b92915050565b610dc781610d2d565b8114610dd257600080fd5b50565b600081359050610de481610dbe565b92915050565b600060208284031215610e0057610dff610a5a565b5b6000610e0e84828501610dd5565b91505092915050565b6000602082019050610e2c6000830184610d4e565b92915050565b600080600060608486031215610e4b57610e4a610a5a565b5b6000610e5986828701610ba3565b9350506020610e6a86828701610ba3565b9250506040610e7b86828701610c3b565b9150509250925092565b7f4e487b7100000000000000000000000000000000000000000000000000000000600052604160045260246000fd5b7f4e487b7100000000000000000000000000000000000000000000000000000000600052603260045260246000fd5b7f4e487b7100000000000000000000000000000000000000000000000000000000600052601160045260246000fd5b6000610f1d82610b82565b9150610f2883610b82565b9250827fffffffffffffffffffffffffffffffffffffffffffffffffffffffffffffffff03821115610f5d57610f5c610ee3565b5b828201905092915050565b6000608082019050610f7d6000830187610d4e565b610f8a6020830186610d4e565b610f976040830185610d3f565b610fa46060830184610d4e565b95945050505050565b6000610fb882610c7d565b9150610fc383610c7d565b92508260ff03821115610fd957610fd8610ee3565b5b828201905092915050565b7f676f744865726500000000000000000000000000000000000000000000000000600082015250565b600061101a600783610ad2565b915061102582610fe4565b602082019050919050565b600060208201905081810360008301526110498161100d565b9050919050565b60006060820190506110656000830186610d4e565b6110726020830185610d4e565b61107f6040830184610d5d565b94935050505056fea2646970667358221220ee381e9964db411201d5c068a5f24e8e2550a9a119402385361fe7fb7fb5b0ad64736f6c634300080e0033",
  "immutableReferences": {},
  "source": "//CHANGE LOGIC TO PIXEL OWNERSHIP AND COLOURING. THEN WRITE TESTS AND PUBLISH TO GET. THEN GET IN TOUCH WITH MF STARKWARE\r\n\r\n// SPDX-License-Identifier: GPL-3.0\r\n// No need to use SafeMath, as lowest allowed version is 0.8.0\r\npragma solidity ^0.8.0;\r\n\r\ncontract Web3Place {\r\n\r\n    address public owner;\r\n\r\n    struct Pixel {\r\n        address owner;  //initializes to 0x0\r\n        uint soldPrice; //initializes to 0x0\r\n        bytes3 colour;  //initializes to 0x0\r\n    }  \r\n\r\n    Pixel[1000][1000] public pixels;    //all pixels will have initial values\r\n    mapping(address => uint) public pendingRefunds; //For implementation of pull payments pattern\r\n\r\n    event PixelColourChanged(uint x, uint y, bytes3 color);\r\n    event PixelOwnerChanged(uint x, uint y, address owner, uint soldPrice);\r\n    event gotHere(string x);\r\n\r\n    constructor() {\r\n        owner = msg.sender;\r\n    }\r\n\r\n    //Pixel buying logic is as follows. To buy a pixel from someone, you must buy it for 1 \"unit\" more than they bought it for.\r\n    //This implies the starting price for all pixels is 1 unit.\r\n    //1 Unit will be 1 ether in this function out of convenience, but you could set it to anything. \r\n    //1 ether is probably too costly in reality.\r\n\r\n    function buyPixel(uint x, uint y) public payable{\r\n        Pixel storage pixel = pixels[x][y];\r\n        require(msg.value >= pixel.soldPrice + 1 ether);\r\n\r\n        if(pixel.owner != address(0x0)){\r\n            pendingRefunds[pixel.owner] += msg.value;\r\n        }\r\n        else{\r\n            //Initial pixel purchases go to contract owner\r\n            pendingRefunds[owner] += msg.value;\r\n        }\r\n\r\n        pixel.owner = msg.sender;\r\n        pixel.soldPrice = msg.value;\r\n\r\n        emit PixelOwnerChanged(x, y, pixel.owner, pixel.soldPrice);\r\n    }\r\n\r\n    function changePixelColour(uint x, uint y, bytes3 colour) public{\r\n        emit gotHere(\"gotHere\");\r\n        Pixel storage pixel = pixels[x][y];\r\n        require(pixel.owner == msg.sender);\r\n\r\n        pixel.colour = colour;\r\n\r\n        emit PixelColourChanged(x, y, pixel.colour);\r\n    }\r\n\r\n    function withdrawProfit() public {\r\n        address payee = msg.sender;\r\n        uint payment = pendingRefunds[payee];\r\n        \r\n        require(payment > 0);\r\n        require(address(this).balance >= payment);\r\n\r\n        pendingRefunds[payee] = 0;\r\n        payable(payee).transfer(payment);\r\n    }\r\n\r\n    /*These functions are for testing. This will be removed from the contract as it can be done in the front end of the implementation (although they are pure so should not affect gas cost either way)*/\r\n    function uint8tohexchar(uint8 i) public pure returns (uint8) {\r\n        return (i > 9) ?\r\n            (i + 87) : // ascii a-f\r\n            (i + 48); // ascii 0-9\r\n    }\r\n\r\n    function uint24tohexstr(uint24 i) public pure returns (string memory) {\r\n        bytes memory o = new bytes(6);\r\n        uint24 mask = 0x00000f;\r\n        o[5] = bytes1(uint8tohexchar(uint8(i & mask)));\r\n        i = i >> 4;\r\n        o[4] = bytes1(uint8tohexchar(uint8(i & mask)));\r\n        i = i >> 4;\r\n        o[3] = bytes1(uint8tohexchar(uint8(i & mask)));\r\n        i = i >> 4;\r\n        o[2] = bytes1(uint8tohexchar(uint8(i & mask)));\r\n        i = i >> 4;\r\n        o[1] = bytes1(uint8tohexchar(uint8(i & mask)));\r\n        i = i >> 4;\r\n        o[0] = bytes1(uint8tohexchar(uint8(i & mask)));\r\n        return string(o);\r\n    }\r\n\r\n    function colourToHexString(bytes3 i) public pure returns (string memory) {\r\n        uint24 n = uint24(i);\r\n        return uint24tohexstr(n);\r\n    }\r\n}",
  "sourcePath": "C:\\Users\\ccall\\OneDrive\\Desktop\\MDWP_From_Video_Solidity\\contracts\\Web3Place.sol",
  "compiler": {
    "name": "solc",
    "version": "0.8.14+commit.80d49f37.Emscripten.clang"
  },
  "schemaVersion": "3.4.7",
  "updatedAt": "2022-07-17T22:09:17.020Z",
  "devdoc": {
    "kind": "dev",
    "methods": {},
    "version": 1
  },
  "userdoc": {
    "kind": "user",
    "methods": {},
    "version": 1
  }
}